:020000040800F2
:1000000000000520611F0008711E0008731E000813
:10001000751E0008771E0008791E00080000000009
:10002000000000000000000000000000A18A00089D
:100030007B1E000800000000418B0008A58B000813
:10004000B11F0008B11F0008B11F0008B11F000850
:10005000B11F0008B11F0008B11F0008B11F000840
:10006000B11F0008B11F0008B11F0008B11F000830
:10007000B11F0008B11F0008B11F0008B11F000820
:10008000B11F0008B11F00087D1E0008B11F000845
:10009000B11F0008B11F0008B11F0008B11F000800
:1000A000B11F0008B11F0008B11F0008B11F0008F0
:1000B000B11F0008B11F0008B11F0008B11F0008E0
:1000C000B11F0008B11F0008B11F0008B11F0008D0
:1000D000B11F0008B11F0008B11F0008B11F0008C0
:1000E000B11F0008B11F0008B11F0008B11F0008B0
:1000F000B11F0008B11F0008B11F0008B11F0008A0
:10010000B11F0008B11F0008B11F0008B11F00088F
:10011000B11F0008B11F0008891E0008B11F0008A8
:10012000B11F0008B11F0008B11F0008B11F00086F
:10013000B11F0008B11F0008B11F0008B11F00085F
:10014000B11F0008B11F0008B11F0008B11F00084F
:10015000B11F0008B11F0008B11F0008B11F00083F
:10016000B11F0008B11F0008B11F0008B11F00082F
:10017000B11F0008B11F0008B11F000800000000F7
:10018000B11F0008B11F0008B11F0008B11F00080F
:10019000B11F0008B11F0008B11F0008B11F0008FF
:1001A000951E0008B11F0008A11E0008B11F00081D
:1001B000B11F0008B11F0008B11F0008B11F0008DF
:0801C000B11F0008B11F000887
:1001D00010B5054C237833B9044B13B10448AFF381
:1001E00000800123237010BD800300200000000068
:1001F0009CE1040808B5034B1BB103490348AFF366
:10020000008008BD00000000840300209CE1040879
:1002100010F8012B11F8013B012A28BF9A42F7D0B0
:10022000D01A70470000000000000000000000002D
:1002300001F0FF01102A2BDB10F0070F08D010F897
:10024000013B013A8B422DD010F0070F42B3F6D19B
:10025000F0B441EA012141EA014122F007047FF0B4
:1002600000070023F0E80256083C85EA010586EA0B
:10027000010685FA47F5A3FA87F586FA47F6A5FA47
:1002800087F68EB9EED1F0BC01F0FF0102F0070253
:1002900032B110F8013B013A83EA010313B1F8D1FE
:1002A0000020704701387047002D06BF35460338DF
:1002B000073815F0010F07D1013015F4807F02BF18
:1002C000013015F4C03F0130F0BC0138704700BF69
:1002D000034613F8012B002AFBD1181A0138704786
:1002E00081F0004102E000BF83F0004330B54FEAE7
:1002F00041044FEA430594EA050F08BF90EA020F54
:100300001FBF54EA000C55EA020C7FEA645C7FEAE6
:10031000655C00F0E2804FEA5454D4EB5555B8BF09
:100320006D420CDD2C4480EA020281EA030382EA7A
:10033000000083EA010180EA020281EA0303362D0C
:1003400088BF30BD11F0004F4FEA01314FF4801CDF
:100350004CEA113102D0404261EB410113F0004FF1
:100360004FEA03334CEA133302D0524263EB4303A8
:1003700094EA050F00F0A780A4F10104D5F1200E46
:100380000DDB02FA0EFC22FA05F2801841F10001A1
:1003900003FA0EF2801843FA05F359410EE0A5F175
:1003A00020050EF1200E012A03FA0EFC28BF4CF0A6
:1003B000020C43FA05F3C01851EBE37101F000455C
:1003C00007D54FF0000EDCF1000C7EEB00006EEB69
:1003D0000101B1F5801F1BD3B1F5001F0CD34908F3
:1003E0005FEA30004FEA3C0C04F101044FEA44524A
:1003F00012F5800F80F09A80BCF1004F08BF5FEAD1
:10040000500C50F1000041EB045141EA050130BDB0
:100410005FEA4C0C404141EB0101013C28BFB1F5C2
:10042000801FE9D291F0000F04BF01460020B1FA0D
:1004300081F308BF2033A3F10B03B3F120020CDAE0
:100440000C3208DD02F1140CC2F10C0201FA0CF0BE
:1004500021FA02F10CE002F11402D8BFC2F1200C23
:1004600001FA02F120FA0CFCDCBF41EA0C019040D9
:10047000E41AA2BF01EB0451294330BD6FEA040422
:100480001F3C1CDA0C340EDC04F11404C4F120020D
:1004900020FA04F001FA02F340EA030021FA04F31F
:1004A00045EA030130BDC4F10C04C4F1200220FA76
:1004B00002F001FA04F340EA0300294630BD21FAB4
:1004C00004F0294630BD94F0000F83F4801306BF7A
:1004D00081F480110134013D4EE77FEA645C18BF6E
:1004E0007FEA655C29D094EA050F08BF90EA020F05
:1004F00005D054EA000C04BF1946104630BD91EAFD
:10050000030F1EBF0021002030BD5FEA545C05D1FF
:100510004000494128BF41F0004130BD14F580043E
:100520003CBF01F5801130BD01F0004545F0FE41B2
:1005300041F470014FF0000030BD7FEA645C1ABFE7
:10054000194610467FEA655C1CBF0B46024650EA1E
:10055000013406BF52EA033591EA030F41F400214A
:1005600030BD00BF90F0000F04BF0021704730B5D0
:100570004FF4806404F132044FF000054FF00001A5
:1005800050E700BF90F0000F04BF0021704730B566
:100590004FF4806404F1320410F0004548BF40423B
:1005A0004FF000013EE700BF42004FEAE2014FEA90
:1005B00031014FEA02701FBF12F07F4393F07F4F6B
:1005C00081F06051704732F07F4208BF704793F06E
:1005D0007F4F04BF41F40021704730B54FF4607481
:1005E00001F0004521F000411CE700BF50EA010284
:1005F00008BF704730B54FF000050AE050EA01022D
:1006000008BF704730B511F0004502D5404261EB9C
:1006100041014FF4806404F132045FEA915C3FF4DD
:10062000D8AE4FF003025FEADC0C18BF03325FEA7A
:10063000DC0C18BF033202EBDC02C2F1200300FA2B
:1006400003FC20FA02F001FA03FE40EA0E0021FA50
:1006500002F11444BDE600BF70B54FF0FF0C4CF43E
:10066000E06C1CEA11541DBF1CEA135594EA0C0FF0
:1006700095EA0C0F00F0DEF82C4481EA030621EA2B
:100680004C5123EA4C5350EA013518BF52EA033566
:1006900041F4801143F4801338D0A0FB02CE4FF018
:1006A0000005E1FB02E506F00042E0FB03E54FF048
:1006B0000006E1FB03569CF0000F18BF4EF0010E40
:1006C000A4F1FF04B6F5007F64F5407404D25FEA3C
:1006D0004E0E6D4146EB060642EAC62141EA5551EF
:1006E0004FEAC52040EA5E504FEACE2EB4F1FD0C31
:1006F00088BFBCF5E06F1ED8BEF1004F08BF5FEAAF
:10070000500E50F1000041EB045170BD06F0004660
:1007100046EA010140EA020081EA0301B4EB5C040D
:10072000C2BFD4EB0C0541EA045170BD41F4801105
:100730004FF0000E013C00F3AB8014F1360FDEBF2A
:10074000002001F0004170BDC4F10004203C35DA06
:100750000C341BDC04F11404C4F1200500FA05F389
:1007600020FA04F001FA05F240EA020001F000422A
:1007700021F0004110EBD37021FA04F642EB0601A0
:100780005EEA430E08BF20EAD37070BDC4F10C04CA
:10079000C4F1200500FA04F320FA05F001FA04F28E
:1007A00040EA020001F0004110EBD37041F100017A
:1007B0005EEA430E08BF20EAD37070BDC4F1200585
:1007C00000FA05F24EEA020E20FA04F301FA05F2ED
:1007D00043EA020321FA04F001F0004121FA04F295
:1007E00020EA020000EBD3705EEA430E08BF20EA65
:1007F000D37070BD94F0000F0FD101F0004640009F
:1008000041EB010111F4801F08BF013CF7D041EA20
:10081000060195F0000F18BF704703F00046520024
:1008200043EB030313F4801F08BF013DF7D043EAF5
:100830000603704794EA0C0F0CEA135518BF95EAAB
:100840000C0F0CD050EA410618BF52EA4306D1D132
:1008500081EA030101F000414FF0000070BD50EA51
:10086000410606BF1046194652EA430619D094EADB
:100870000C0F02D150EA013613D195EA0C0F05D1C5
:1008800052EA03361CBF104619460AD181EA030119
:1008900001F0004141F0FE4141F470014FF00000D1
:1008A00070BD41F0FE4141F4780170BD70B54FF06C
:1008B000FF0C4CF4E06C1CEA11541DBF1CEA1355EC
:1008C00094EA0C0F95EA0C0F00F0A7F8A4EB0504CE
:1008D00081EA030E52EA03354FEA013100F08880C5
:1008E0004FEA03334FF0805545EA131343EA12638E
:1008F0004FEA022245EA111545EA10654FEA002643
:100900000EF000419D4208BF964244F1FD0404F5FB
:10091000407402D25B084FEA3202B61A65EB030557
:100920005B084FEA32024FF480104FF4002CB6EB14
:10093000020E75EB030E22BFB61A754640EA0C0094
:100940005B084FEA3202B6EB020E75EB030E22BFD4
:10095000B61A754640EA5C005B084FEA3202B6EB15
:10096000020E75EB030E22BFB61A754640EA9C00D4
:100970005B084FEA3202B6EB020E75EB030E22BFA4
:10098000B61A754640EADC0055EA060E18D04FEA62
:10099000051545EA16754FEA06164FEAC30343EA02
:1009A00052734FEAC2025FEA1C1CC0D111F4801FCF
:1009B0000BD141EA00014FF000004FF0004CB6E7C8
:1009C00011F4801F04BF01430020B4F1FD0C88BF67
:1009D000BCF5E06F3FF6AFAEB5EB030C04BFB6EB72
:1009E000020C5FEA500C50F1000041EB045170BD65
:1009F0000EF0004E4EEA113114EB5C04C2BFD4EB92
:100A00000C0541EA045170BD41F480114FF0000E15
:100A1000013C90E645EA060E8DE60CEA135594EA91
:100A20000C0F08BF95EA0C0F3FF43BAF94EA0C0F94
:100A30000AD150EA01347FF434AF95EA0C0F7FF409
:100A400025AF104619462CE795EA0C0F06D152EA5D
:100A500003353FF4FDAE1046194622E750EA410641
:100A600018BF52EA43067FF4C5AE50EA41047FF452
:100A70000DAF52EA43057FF4EBAE12E74FF0FF3CB7
:100A800006E000BF4FF0010C02E000BF4FF0010C88
:100A90004DF804CD4FEA410C7FEA6C5C4FEA430C01
:100AA00018BF7FEA6C5C1BD001B050EA410C0CBF50
:100AB00052EA430C91EA030F02BF90EA020F0020B2
:100AC000704710F1000F91EA030F58BF994208BF19
:100AD00090422CBFD8176FEAE37040F001007047D6
:100AE0004FEA410C7FEA6C5C02D150EA013C07D12D
:100AF0004FEA430C7FEA6C5CD6D152EA033CD3D078
:100B00005DF8040B704700BF8446104662468C4671
:100B10001946634600E000BF01B5FFF7B7FF0028A4
:100B200048BF10F1000F01BD4DF808EDFFF7F4FFCD
:100B30000CBF012000205DF808FB00BF4DF808ED58
:100B4000FFF7EAFF34BF012000205DF808FB00BF7B
:100B50004DF808EDFFF7E0FF94BF012000205DF89D
:100B600008FB00BF4DF808EDFFF7CEFF94BF012052
:100B700000205DF808FB00BF4DF808EDFFF7C4FF4B
:100B800034BF012000205DF808FB00BF4FEA410C94
:100B90007FEA6C5C02D150EA013C0AD14FEA430C77
:100BA0007FEA6C5C02D152EA033C02D14FF00000B4
:100BB00070474FF0010070474FEA410212F50012F2
:100BC00015D211D56FF47873B3EB625212D94FEA94
:100BD000C12343F0004343EA505311F0004F23FA7E
:100BE00002F018BF404270474FF00000704750EAD3
:100BF000013005D111F0004008BF6FF00040704790
:100C00004FF00000704700BF4A0011D212F50012E9
:100C100011D20DD56FF47873B3EB62520ED44FEA54
:100C2000C12343F0004343EA505323FA02F07047D4
:100C30004FF00000704750EA013002D14FF0FF3012
:100C400070474FF0000070474FEA4102B2F1E043B5
:100C500024BFB3F5001CDCF1FE5C0DD901F0004CA3
:100C60004FEAC0024CEA5070B2F1004F40EB8300F3
:100C700008BF20F00100704711F0804F21D113F11F
:100C80003872BCBF01F00040704741F480114FEA58
:100C90005252C2F11802C2F1200C10FA0CF320FAE1
:100CA00002F018BF40F001004FEAC1234FEAD323FE
:100CB00003FA0CFC40EA0C0023FA02F34FEA430368
:100CC000CCE77FEA625307D150EA01331EBF4FF0F1
:100CD000FE4040F44000704701F0004040F0FE400C
:100CE00040F40000704700BF53B94AB9002908BF5B
:100CF00000281CBF4FF0FF314FF0FF3000F0A6B9C5
:100D0000ADF1080C6DE904CE00F03CF8DDF804E02C
:100D1000DDE9022304B0704738B500220023044601
:100D20000D46FFF70BFF28B920462946BDE838409D
:100D300000F00AB8204605F1004100F005F84042F5
:100D400061EB410138BD00BFD0B50C4B0022064617
:100D50000F46FFF781FCFFF757FF0446FFF702FC41
:100D6000074B0022FFF778FC02460B463046394617
:100D7000FFF7BAFAFFF748FF2146D0BD0000F03D6B
:100D80000000F0412DE9F047089E0D4604460F464D
:100D9000002B4AD18A42944665D9B2FA82F343B114
:100DA00002FA03FCC3F120029F4020FA02F217432B
:100DB0009C404FEA1C4E1FFA8CF5B7FBFEF1220C4B
:100DC0000EFB117742EA074201FB05F090420AD977
:100DD0001CEB020201F1FF3780F01C81904240F2CF
:100DE000198102396244121AA4B2B2FBFEF00EFB62
:100DF000102244EA024400FB05F5A5420AD91CEB87
:100E0000040400F1FF3280F00781A54240F2048122
:100E10006444023840EA0140641B00211EB1DC40FA
:100E20000023C6E90043BDE8F0878B4208D9002EB5
:100E300000F0ED800021C6E900050846BDE8F08716
:100E4000B3FA83F1002949D1AB4202D3824200F2C6
:100E5000F880841A65EB030201201746002EE2D0C9
:100E6000C6E90047DFE702B9FFDEB2FA82F3002BE2
:100E700040F090808A1A4FEA1C471FFA8CFE01212D
:100E8000B2FBF7F507FB1520220C42EA00420EFBED
:100E900005F0904208D91CEB020205F1FF3802D29E
:100EA000904200F2CB804546121AA4B2B2FBF7F092
:100EB00007FB102244EA02440EFB00FEA64508D9B7
:100EC0001CEB040400F1FF3202D2A64500F2BB8005
:100ED0001046A4EB0E0440EA05409FE7C1F120074D
:100EE0008B4022FA07FC4CEA030C05FA01F420FAC5
:100EF00007F3FD404FEA1C492343B5FBF9F81FFAFD
:100F00008CFE09FB18551C0C44EA054408FB0EF541
:100F1000A54202FA01F200FA01F00BD91CEB04041D
:100F200008F1FF3A80F08880A54240F28580A8F160
:100F300002086444641B9DB2B4FBF9F309FB13443B
:100F400045EA044403FB0EFEA64508D91CEB040445
:100F500003F1FF356CD2A6456AD9023B644443EAEB
:100F60000843A3FB0295A4EB0E04AC42C846AE4670
:100F700056D353D056B1B0EB080264EB0E0404FA1A
:100F800007F7CA40CC401743C6E900741846002151
:100F9000BDE8F087C3F1200102FA03FC20FA01F258
:100FA00025FA01F19D402A434FEA1C471FFA8CFEA7
:100FB000B1FBF7F007FB1015110C41EA054100FBEE
:100FC0000EF58D4204FA03F408D91CEB010100F17F
:100FD000FF382FD28D422DD902386144491B92B27D
:100FE000B1FBF7F507FB151142EA014205FB0EF1D3
:100FF000914208D91CEB020205F1FF3816D291424A
:1010000014D9023D6244521A45EA004138E731469C
:10101000304608E73946E6E61046FBE64845A9D2E1
:10102000B9EB020865EB0C0E013BA3E74546EAE786
:101030002B4694E74046D1E7D0467BE7023D624429
:1010400032E708460AE76444023842E7704700BFC7
:101050000149002008F04CBFD523000808B56420E2
:1010600007F030F9FBE7000007B54FF6FF7301907A
:10107000012201A9034806F000FF019803B05DF8C2
:1010800004FB00BFDC05002013B500230C4C082234
:101090000DF107018DF80730204623681A624FF6DC
:1010A000FF73012206F039FF4FF6FF7301220DF1A5
:1010B0000701204606F0E1FE9DF8070002B010BDD2
:1010C000DC05002008B5FFF74DFA00220E4BFFF7B4
:1010D000C3FA00220D4BFFF7BFFAFFF7B5FDDFEDB6
:1010E0000C7A07EE100ADFED0B6A9FED0B0A77EE24
:1010F000677A87EEA67ADFED097AA7EE270AF6EE81
:10110000007A20EE270A08BD0000303F000014409E
:10111000333353409A99D93F000048C20000C84277
:1011200010B594B01022002102240AA846F0F6FF60
:101130001422002103A846F0F1FF1D4B192108A835
:101140001A6C42F080521A641B6C03F080530193B6
:10115000019B184B1A6842F440421A6001221B6836
:1011600003F440430293029B4FF48033CDE90823FC
:101170004FF48003CDE90E434FF4D873CDE9124408
:10118000CDE9101305F050FD05F0F2F90F23002012
:101190000721CDE903344FF4A053CDE905034FF403
:1011A000805303A8079305F027FF14B010BD00BFBC
:1011B00000380240007000402DE9F04F2DED028B09
:1011C000A5B010220021012510A84FF0104B46F0C9
:1011D000A5FF002404F02EF9C64B10A8ADF840502E
:1011E0001394CDE911B304F043F9172310A88DF837
:1011F00041508DF848308DF84E5004F039F90420F4
:1012000004F026F9BFF34F8FBFF36F8FBA4AC2F8CD
:101210005042BFF34F8FBFF36F8F536943F40033D6
:101220005361BFF34F8FBFF36F8FC2F88440BFF39A
:101230004F8FD2F8803043F6E074C3F3C900C3F394
:101240004E335B0103EA0406014646EA8175013923
:10125000C2F86052F9D2203B13F1200FF2D1BFF354
:101260004F8F536943F480335361BFF34F8FBFF304
:101270006F8F03F045FD0024FFF752FF1422002179
:1012800010A846F04BFF9D4B10219D481A6B01267C
:101290004FF010084FF0040942F010024FF4805A4A
:1012A0004FF0030B974D1A631A6B974F02F0100221
:1012B0000192019A1A6B42F002021A631A6B02F051
:1012C00002020292029A1A6B42F001021A631A6B2E
:1012D00002F001020392039A1A6B42F040021A6371
:1012E0001A6B02F040020492049A1A6B42F40072E4
:1012F0001A631A6B02F400720592059A1A6B42F097
:1013000008021A631A6B02F008020692069A1A6B18
:1013100042F480621A631A6B02F480620792079AA1
:101320001A6B42F020021A631A6B02F02002089234
:10133000089A1A6B42F480721A631A6B02F4807274
:101340000992099A1A6B42F080021A631A6B02F032
:1013500080020A920A9A1A6B42F004021A6300226F
:101360001B6B03F004030B930B9B04F0D3FB0122D4
:101370000821664804F0CEFB00220421644804F0F2
:10138000C9FB01224FF48051624804F0C3FB0022E4
:10139000C021614804F0BEFB10A95948CDE9108670
:1013A000CDE9124404F02EFA082310A95748CDE9DC
:1013B0001036CDE9124404F025FA10A95448CDE9BD
:1013C0001096CDE9124404F01DFA10A95148CDE958
:1013D00010A6CDE9124404F015FAC02210A94E4817
:1013E0001294CDF84CB0CDE9102604F00BFA4B481E
:1013F0004B4A848002600662C0E9054404F064F848
:10140000484A2846C5E90A44C5E90C44C5E9002410
:10141000C5E9024404F0F5F831462846424D04F08F
:10142000A9F9424A402310A93846C7F81080FC6148
:10143000BC62C7E900244FF4C072C7E905324FF41B
:101440000062C7E9082A4FF0020A0722C7E90249E9
:10145000CDE910A2CDE91292CDE914BACDF858A089
:1014600006F030F929464FF6FF7238460094C5E978
:101470000068C5E9026406F045F9304603F064FCF3
:1014800029464FF6FF723846C5E900A8C5E902644F
:1014900006F038F9082329464FF6FF723846C5E9A9
:1014A0000234C5E900B806F02DF94FF40C734FF67D
:1014B000FF72294600933846009BAE60EB60C5E999
:1014C000009806F01FF940F22B713846184D06F0CF
:1014D00038F94FF0204343F2D202642040F215273E
:1014E0001A6003F031FC134B134A28462C62C5E9FD
:1014F000002323E01B00000300ED00E00038024061
:101500000004024020040020A8050020002802401A
:10151000000C02400020024000080240FC030020B2
:101520000030024000B002409C030020400100A0B7
:101530006004002068474020005C0040C5E9024686
:10154000C5E90444C5E9064404F00CFC21462846DC
:1015500004F02AFE214628468B4D04F04BFE34222F
:10156000214610A846F0DAFD884B2821352040F2AC
:10157000352CAC862C6185F83640C5E9003409234A
:10158000C5E905130B23C5E9070340F21B132846E1
:10159000C5E9097340F21D13C5E90244C5E90BC34F
:1015A00004F0D0FEFF214FF4806E4FF4F0724FF440
:1015B00088732846109418251B93ADF870408DF859
:1015C0007240CDE915140521CDE917E14FF04041F6
:1015D000CDE91124CDE91912224610A9CDE9133A1B
:1015E00004F07BFF6A486B4B0462DFF8F4A1C0E9AA
:1015F00000364FF4A063C0E90298C0E90453C0E983
:10160000064405F0CFF8DFF8DC9103F0F7F903F0BA
:101610003BF95C2003F0FCFE00F0A0FC5E484FF4B8
:10162000E13304614462C0E900930C23C0E9024441
:10163000C0E90534C0E9074406F0FDFC2A4621460E
:1016400010A846F06BFD424621460CA846F066FD08
:10165000524D4FF480332846AC602C61AC6185F864
:101660002040EC62EC60EE6185F830406E61C5E9C7
:1016700000A34B4BAB6203F079FB4A4B10A9284601
:101680008DF85040CDE91034CDE9124403F03EFE10
:101690000CA928460E94CDE90C4603F08BFD00F012
:1016A00089FC00F086FC284603F0EFFC10AD46F004
:1016B000A1F83D4846F09EF83C4B1B68986845F001
:1016C000ABFEFFF7E1FCC0B20A2807D00D2805D019
:1016D0004F2CF6D0013405F8010BF2E704F190032A
:1016E000002610A932480DEB030404F8506C46F0B4
:1016F00081F810A843F082FD284855EC104B03F008
:10170000DBFB4FF0FF31254803F06BFC234803F06F
:10171000BCFCFFF7D7FC10EE100AB0EE408AFEF7D3
:1017200043FF02460B46234846F064F8294620460C
:10173000FFF78AFA07EE900A10211F48F4EEC87AE4
:10174000F1EE10FA94BF0122324604F0E3F9134897
:1017500003F02CFC06F028FD184A0021184806F07A
:101760005DFD184B184A00211860184806F056FD18
:10177000174B184A00211860174806F04FFD174B09
:10178000186006F02BFDFEE7B4040020006801405D
:101790005C050020001000A0DC050020B403002040
:1017A0000100000F0002800004E204082003002072
:1017B00015E2040825E204080004024080E204085F
:1017C0005D100008B00300205CE20408C31F00089D
:1017D000AC030020A4E20408BD3700086406002022
:1017E00000200140001001400268034B9A4201D1E1
:1017F00003F098BA704700BF001000407047000027
:101800000D4B82B00F216FF001001A6C42F0805234
:101810001A641A6C02F080520092009A5A6C42F4D8
:1018200080425A6400225B6C03F480430193019B65
:1018300002B003F0ADBD00BF0038024010B588B063
:1018400004461422002103A846F068FC2268144BC9
:101850009A4223D103F58C3303A912485A6C42F4FF
:1018600080725A645A6C02F480720192019A1A6B67
:1018700042F001021A6301221B6B03F00103029381
:10188000029B0323CDE9032303F0BCFF12200022B7
:10189000052103F07DFD122003F0ACFD08B010BD62
:1018A0000020014000000240026882B0084B9A42CA
:1018B0000BD1D3F8302803F5006342F480521A6349
:1018C0001B6B03F480530193019B02B0704700BF70
:1018D000003002400E4B07B502689A4215D1A3F5BD
:1018E000F04305215A201A6B42F400021A630022C9
:1018F0001B6B03F400030193019B03F049FD5A2085
:1019000003B05DF804EB03F075BD03B05DF804FBB4
:1019100000B0024010B5A8B004461422002102A86D
:1019200046F0FCFB8422002107A846F0F7FB226862
:10193000174B9A422AD14FF4803307A8079305F03A
:1019400037FC08B1FFF75AFF124C4FF4C072012167
:101950001148236B43F080032363236B03F0800360
:101960000093009B1223CDE902230323CDE9041346
:10197000042302A9069303F045FF236C43F40003FC
:101980002364236C03F400030193019B28B010BD72
:10199000005C004000380240001C0240026808B5AC
:1019A000094B9A420FD1094A80210948136C23F44C
:1019B0000003136404F008F84FF480710448BDE894
:1019C000084004F001B808BD005C00400038024047
:1019D000001C024070B5ACB004461422002106A8D9
:1019E00046F09CFB842200210BA846F097FB22685E
:1019F000484B9A4240F08C800823052001240B9329
:101A00004FF4C07310930223CDE911304FF400332B
:101A10000BA8CDE9154305F0CBFB08B1FFF7EEFEAF
:101A20003D4B002402250E265A6C06A93B4842F085
:101A300080625A645A6C02F080620092009A1A6BBB
:101A400042F010021A631A6B02F010020192019A1E
:101A50001A6B42F400721A631A6B02F4007202925B
:101A6000029A1A6B42F480621A631A6B02F4806263
:101A70000392039A1A6B42F040021A631A6B02F047
:101A800040020492049A1A6B42F480721A631B6B30
:101A900003F480730593059B1023CDE90635CDE94A
:101AA00008440A9603F0AEFE4EF6FF7306A91C48E2
:101AB0000A96CDE90635CDE9084403F0A3FEF723E5
:101AC00006A918480A96CDE90635CDE9084403F081
:101AD00099FE4FF4805306A91348CDE90635092332
:101AE000CDE908440A9303F08DFE4FF4464306A95E
:101AF0000E480A96CDE90635CDE9084403F082FE8A
:101B000058202246052103F043FC582003F072FCC4
:101B10002CB070BD00680140003802400010024047
:101B20000024024000280240001802400020024029
:101B3000142200212DE9F0418AB004460DEB020089
:101B400046F0ECFA22682C4B9A4251D12B4B0225DD
:101B5000032409269A6B4FF0040805A9284842F08F
:101B6000020200279A639A6B02F002020192019A24
:101B70001A6B42F010021A631A6B02F01002029202
:101B8000029A1A6B42F002021A631A6B02F0020206
:101B90000392039A1A6B42F008021A631B6B03F05C
:101BA00008030493049BCDE90585CDE9084603F0BD
:101BB00029FE402305A91348CDE905350A23CDE9BF
:101BC0000774099303F01EFE05A90E480996CDE996
:101BD0000585CDE9077403F015FE4FF4605305A9A0
:101BE00009480996CDE90535CDE9077403F00AFEE9
:101BF0000AB0BDE8F08100BF001000A0003802402C
:101C00000010024000040240000C0240026808B5C7
:101C10000B4B9A4213D10B4A04210B48936B23F0D0
:101C20000203936303F0D0FE4421084803F0CCFE86
:101C30004FF460510648BDE8084003F0C5BE08BD3A
:101C4000001000A0003802400010024000040240D2
:101C5000000C0240F0B5ABB004461422002104A8E9
:101C600046F05CFA8422002109A846F057FA22685F
:101C7000204B9A423CD1402309A8099305F098FAD9
:101C800008B1FFF7BBFD1C4B0227002603255A6C49
:101C9000072404A9194842F010025A645A6C02F051
:101CA00010020192019A1A6B42F002021A631A6B37
:101CB00002F002020292029A1A6B42F001021A63C7
:101CC0001B6B089403F001030393039B8023CDE96E
:101CD0000665CDE9043703F095FD4FF4007304A9C0
:101CE00007480894CDE90437CDE9066503F08AFD7D
:101CF0002BB0F0BD0010014000380240000402404B
:101D000000000240F0B5002387B00393294B1E6802
:101D1000002E4DD10122022703250C241A6001A9AF
:101D2000254B26489A6B42F001029A639B6B03F0A5
:101D300001030093009B4FF68373CDE90454CDE972
:101D4000013703F05FFD48F2331301A91C480594E5
:101D5000CDE90137CDE9036503F054FD4CF203737F
:101D600001A918480594CDE90137CDE9036503F0D1
:101D700049FD4FF63F0301A913480594CDE901370A
:101D8000CDE9036503F03EFD282301A90F48059422
:101D9000CDE90137CDE9036503F034FD082301A93E
:101DA0000B480594CDE90137CDE9036503F02AFD21
:101DB00007B0F0BD68060020003802400010024065
:101DC00000180240000C024000140240001C0240B7
:101DD00000080240214B1A6C42F0100270B51A64E0
:101DE00088B01B6C054601A903A803F010030293F9
:101DF000029B05F0BFF9069B4BBB05F09BF9184E03
:101E0000184B336040F2E733F360174BB0FBF3F34A
:101E1000013B3046736000233361B360B36105F06A
:101E200001FE044680B9304605F0A4FC044658B9CA
:101E3000362003F0DFFA0F2D0DD822462946362032
:101E400003F0A6FA094B1D60204608B070BD05F0EE
:101E500071F94000D3E70124F6E700BF00380240E3
:101E60006C0600200010004040420F00400000209F
:101E70007047FEE7FEE7FEE7FEE77047014803F024
:101E80000AB900BFB4030020014805F0B5BC00BF8B
:101E90006C060020014804F0C3BA00BFB40400205F
:101EA000014803F0DCBB00BF200400200120704784
:101EB00008B548F04BF9162303604FF0FF3008BD1A
:101EC00008B548F043F916230360FEE770B50D46E8
:101ED00014460E46731B9C4201DC204670BDFFF782
:101EE000D3F806F8010BF5E770B50D4614460E461B
:101EF000731B9C4201DC204670BD16F8010BFFF7F6
:101F0000B3F8F5E74FF0FF3070474FF4005300206F
:101F10004B60704701207047002070470B4A034612
:101F2000116810B509B90A491160106809490A4CCD
:101F30000344091B8B4206D948F008F90C230360BF
:101F40004FF0FF3010BD1360FCE700BFBC0600205F
:101F50008078012000000520000A00007047000082
:101F6000DFF834D0002103E00C4B5B5843500431C0
:101F70000B480C4B42189A42F6D30B4A02E000235E
:101F800042F8043B094B9A42F9D302F0CFFD48F0E6
:101F9000E3F8FFF711F9704700000520C07305084A
:101FA0000000002080030020800300207C780120B6
:101FB000FEE7704708B501F0B3F8BDE8084001F04E
:101FC0003FB801F0AFB8406870474160704700000B
:101FD0004FF0E022D2F8FC3D43F08073C2F8FC3DA4
:101FE000054B064AD3F8B01F0A43C3F8B02F1A684E
:101FF00042F001021A607047001000E055CEACC5F7
:10200000511A01EB5301B1FBF3F07047014B5868D3
:10201000704700BF001000E0704710B504460C2167
:1020200029F0D8FD204610BD036810B51B69044691
:1020300031B19847A26863689B1A1844606010BD6C
:102040009847A060FBE70000024B7020024A136033
:10205000DB68184714000020C0060020704710B548
:102060000446042129F0B6FD204610BD73B50E4E7E
:102070000D461446336813B9002002B070BD1B69C9
:10208000702098470028F7D03368702001AA0DF11E
:1020900006015B699847BDF8043001202B60BDF84C
:1020A00006302360E9E700BFC00600207FB50123AA
:1020B0008DF817204FF47A72CDE901320DF1170235
:1020C00000920A460146054803F0B6FE10B10348E7
:1020D00003F099FE07B05DF804FB00BF6004002028
:1020E0007FB500230A464FF47A718DF8173001232B
:1020F000CDE901310DF1170100910146054803F0CA
:1021000075FF10B1034803F07EFE9DF8170007B07D
:102110005DF804FB60040020012802D0022809D0E9
:102120007047084B40215A68B2FA82F252090648B9
:1021300003F0F0BC034B80219A68B2FA82F2520994
:10214000F5E700BFC406002000080240012802D0C5
:10215000022809D07047084B40215A68003A18BF3E
:102160000122064803F0D6BC034B80219A68003A4E
:1021700018BF0122F5E700BFC40600200008024096
:10218000012802D0022804D070474021024803F001
:10219000C6BC8021FAE700BF00080240012808B54C
:1021A00006D0022809D00020431E5842584108BDDD
:1021B0004021034803F0A8FCF6E78021F9E700BFBF
:1021C0000008024070B5084D00240126E0B2FFF778
:1021D000E5FF18B12B68012B18BF2E6001340435C0
:1021E000052CF3D170BD00BFC4060020012380F888
:1021F000781080F8793070470020704741640039CA
:10220000024B18BF01211970704700BFE75501202C
:1022100000207047836B0BB10846184770474FF694
:10222000FF707047406803689B691847704700005B
:1022300038B5044601F080F8084923682046084D67
:10224000D3F88C3098470023284684F84A30FFF7AB
:10225000BFFE0123256184F8703038BD000000C046
:10226000D406002001F01EB801F022B870B501F0CC
:102270008DF810490023C1F88430BFF34F8FD1F897
:10228000803043F6E074C3F3C900C3F34E335B01FF
:1022900003EA0406024646EA8275013AC1F874521E
:1022A000F9D2203B13F1200FF2D1BFF34F8FBFF3D0
:1022B0006F8F70BD00ED00E001F06AB800F0CEBF96
:1022C00001F084B901F08CB900F0D2BF10B504461A
:1022D00016F0E2FB23682046D3F8AC30BDE810408E
:1022E000184715F037BE10B504467C2129F072FC62
:1022F000204610BD90F87A301BB1406803681B6817
:10230000184718467047000090F834100D4B10B570
:1023100090F878401A788C4209D03AB90A490B4AA9
:1023200008881488108001220C801A7010BD002AC1
:10233000FCD0064A0449148808880C8010800022CA
:10234000F3E700BFE0550120DE550120DC550120F8
:1023500070B50D46194635B9094B40F2D221094AEC
:10236000094842F027FFC0E90F52003A074B18BF57
:1023700001221A700368BDE87040D3F88C3018470A
:1023800008E3040840E304088EE30408E65501204E
:1023900008B5094B1B888B4203D8084B1B88934216
:1023A00005D9074B9E21074A074842F003FF074B18
:1023B0001980074B1A8008BDDC550120DE5501202D
:1023C000D3E3040836E404088EE30408E255012050
:1023D000E4550120014608B5034B186801B10121FD
:1023E00016F074FB012008BDE8550120034B0022C4
:1023F0005A609A60024A1A60704700BFD4060020F3
:10240000D0E204080121002208B5084606F012F8BF
:102410000A4B186028B90A4B28210A4A0A4842F098
:10242000C9FE00220421012006F0CAF8074B1860FB
:1024300018B9074B2C21034AF0E708BDE406002039
:1024400054E504089DE50408CCE50408E0060020F6
:102450001BE60408024B4FF0FF31186806F040B845
:10246000E4060020014B186806F074B8E40600206A
:10247000024B0021186806F033B800BFE4060020C4
:10248000FFF7F0BF0023034803491A46006806F02F
:10249000DDB800BFE00600200800002013B50023CF
:1024A000074C01A91A46206806F012F94FF0FF33D5
:1024B000002201A9206806F00BF902B010BD00BF90
:1024C000E006002003685B6C184701207047036832
:1024D0009B6A18470D4B82B01A6B42F400021A63D4
:1024E0001A6B02F400020192019A1A6942F4000286
:1024F0001A611A6922F400021A61054B054A1A6131
:102500004FF08062044B9A6002B07047003802407E
:10251000200400205D25000800E100E040F2EF30DB
:1025200070470000054B4FF080620360044BC3F816
:102530008820BFF34F8FBFF36F8F7047BCE704084D
:1025400000E100E010B504464FF45A61FFF7EAFFDE
:10255000204629F03FFB204610BD0000024B1B68BF
:10256000586803685B691847E855012070B5044650
:102570000A4B0C3000262546602260602672667287
:1025800045F8203B294616F0DDFB04F55A63EE6062
:102590002435AB42FBD1204670BD00BFBCE7040828
:1025A00008B50B290BD8DFE801F01206100A0A0A59
:1025B0000A0808080808012008BD0520FCE7054BAB
:1025C0006521054A054842F0F5FD0020F4E70220A8
:1025D000F2E700BF5DE6040878E60408C2E60408F6
:1025E00008B50A2909D8DFE801F010060E08080826
:1025F000080606060600012008BD054B8621054A8F
:10260000054842F0D7FD0020F6E70220F4E700BFBE
:102610005DE604080FE70408C2E604082DE9F84364
:1026200091F81D800C4607464146FFF7B9FF94F824
:102630001E90054638464946FFF7B2FF4946064612
:102640003846FFF7CDFFA18A628B434B521A1A64BA
:102650009A61228B521A1A61E28A586342EA014255
:1026600020695A646268D863DA602768802F28D0AE
:10267000227F0FD8202F65D0402F63D0042F1AD08F
:1026800045EA0265344BC84545F40035DD615FD04D
:10269000324A44E0B7F5807F04D0B7F5007FEFD130
:1026A0002F4900E02F4941EA0262DA61E2681A62CA
:1026B0005E62586132E045EA026242F40032DA6159
:1026C000F6E7A7683A1DDA62217F3A7845EA0165A4
:1026D00045F40035DD615E62586142B1012A21D0C6
:1026E000214B4FF48871214A214842F063FDDA6999
:1026F000798822F47F42013922F0100242EA012255
:102700000121DA61144BDA6942F02002DA61DA69F8
:102710009206FCD410229A600029B9D0154A1A609A
:10272000BDE8F883DA69FF39788822F47F4218BF60
:102730000121013822F0100242EA002242F0100288
:10274000DA61DFE745EA0262034B42F40032B6E7A2
:1027500040F20122E3E700BF00B0024001020100A5
:10276000090002000A0002005AE7040874E704089E
:10277000C2E604080102020038B50C46897FFFF763
:102780002FFF174BA58AE28A586342EA0542216966
:102790005A64628BD963521B1A642568082D0ED1C6
:1027A0009A611A6158620F4A207F42EA0062DA6138
:1027B000E2681A620C4A5961D9601A6038BD002279
:1027C000D8611A61E1680A0A4809C1F3C40102F438
:1027D000784200F4FC6002430A439A63034AECE740
:1027E00000B00240090001000102020001020300E2
:1027F0004069704790F844007047036B23B9C06A82
:10280000003818BF0120704701207047806870476A
:10281000043010B50C460FC884E80F0010BD704797
:1028200008B5034A40F21221024B034842F0C2FCB1
:1028300004E80408EB0105085FE8040810B5044645
:10284000482129F0C7F9204610BD00002DE9F043CA
:102850001C46436BADF51F7D05460E461746002B03
:1028600037D0002203A8DFF8A890CDE901320EF09E
:10287000A9F84FF4F4725021249024A807F0F1FF36
:102880003A46314624A808F06DFF012124A808F03B
:10289000EBF8022324A88DF8D83008F089F9BDF8A8
:1028A00098322B9ABDF89C629342A89F28BF13468A
:1028B000419A964203EB4308A7EB430728BF16460D
:1028C000479B9E4209D824A808F0F0F824A808F0F5
:1028D00015F80DF51F7DBDE8F083012201A924A89C
:1028E00008F0AFF96B6B03EB0800984201D83C4449
:1028F000E6E759789A78C90009EA022201F4FC61F6
:102900000A4313F8031B42EAD10224F8022BECE736
:1029100000F8FFFF0A4A02600022C0E90522C0E970
:102920000722C0E90922C0E90B22C0E90D12C0E963
:102930000F2280F84420C0E90322C0E90122704739
:1029400040EB040810B40C4611461A46036B3BB129
:10295000036C806BE41A20445DF8044B45F0D8BD4D
:10296000C06AF8E7036B10B573B1036C826BC91AC8
:102970005318525C98785C780004DB7840EA0420B5
:10298000104340EA036010BDC36A5858FBE7036B6D
:1029900043B1036CC91A836B5A18585C527840EAE9
:1029A00002207047C36A585A7047000070B5044649
:1029B000006B0D461646D8B1E36B934208D209234B
:1029C0000D4A65210D4884F844300D4B42F0F2FB6E
:1029D0000368DB689847206B3246A16B03681B696C
:1029E000984710B90D2384F84430A06B256470BD5E
:1029F000E06A0844FBE700BFCBE804085FE804088E
:102A0000B8E804082DE9F843436904462BB9234B81
:102A1000AA21234A234842F0CDFB08228169FFF70F
:102A2000C5FFA16943F2300646F2643704312046FF
:102A3000FFF798FFA3691844A36A00F108029A42BD
:102A400006D3012300206361236AA361BDE8F883F4
:102A5000636909300822013320F0010120466361D7
:102A6000A161FFF7A3FFD4F8189020464946FFF76D
:102A70008EFF09F1020180462046FFF788FF09F129
:102A8000040105462046FFF76DFFB045D2D1BD4297
:102A9000D0D10028CED00120D8E700BF0DE904082E
:102AA00056E904085FE804082DE9F04F0446ADF547
:102AB0001F7D8A461646816908229846FFF776FFF1
:102AC000A7692046391DFFF74DFF07F108010246AF
:102AD00005462046FFF76AFF636B074633B93C4B58
:102AE00040F2AB113B4A3C4842F064FB002203A891
:102AF000CDE901320DF066FF4FF4F47250212490BD
:102B000024A807F0AEFE2A46394624A808F02AFE7B
:102B1000012124A807F0A8FF022324A88DF8D830AB
:102B200008F046F8BAF90250479BAB4229D3BAF9EC
:102B300000904FEA4808BAF804702B9B08FB056622
:102B40004F44BAF80250DFF894B03FB29F4228BF1A
:102B50001F46BAF8063009EB490A1D44419B2DB2C5
:102B60009D4228BF1D46479BAB4210D324A807F0C7
:102B70009DFF24A807F0C2FE01200DF51F7DBDE8D2
:102B8000F08F012201A924A808F05BF8CCE701220C
:102B900001A924A808F055F8626B49465244B9428D
:102BA00002F1030201D34644DDE712F8020C12F8E9
:102BB000013CC0000BEA032300F4FC60034312F85D
:102BC000030C43EAD00326F811300131E7E700BFD8
:102BD00089E90408DFE904085FE8040800F8FFFF5A
:102BE0000129036838BF0121DB6A70B50D46044630
:102BF0009847A84204D223682046DB6A98470546D6
:102C00006B1EE6691022204606EB031606F108014A
:102C1000FFF7CCFE06F110012046FFF7A3FE236A62
:102C2000043B0344C4E9055370BD00002DE9F341A2
:102C3000002104464822816180F84410FFF7B6FE67
:102C4000A7690423634A39462046FFF77BFE40B15B
:102C50000323614AF22184F84430604B604842F01B
:102C6000A9FA07F1080104235E4A2046A161FFF793
:102C700069FE30B10423584AFA2184F844305A4B93
:102C8000ECE707F10C010423584A2046A161FFF745
:102C900059FE064638B105234F4A40F2011184F827
:102CA0004430534BDAE707F110012046FFF75AFE94
:102CB000054620B94F4B40F20711474ACEE707F1CE
:102CC000140804234C4A20464146FFF73BFE0028E7
:102CD0004BD0062384F844300423484A07F11801F6
:102CE0002046FFF72FFE002841D0072384F8443008
:102CF0004544434F0C2220462946FFF757FE05F175
:102D0000080604233A4620463146FFF71BFE94F896
:102D1000443000284AD0002B4AD1A36A291DAB4277
:102D20004AD805F10C03291D2046A3610191FFF744
:102D300019FE3044019960622046FFF713FE0644F5
:102D4000042220463146FFF731FE04232D4A314646
:102D50002046FFF7F7FD002839D10123E6616361C2
:102D6000A369236202B0BDE8F0810126B4E7002E1A
:102D7000BED007F120012046FFF7F4FD4FF47A732F
:102D800007F13001B0FBF3F060602046FFF7EAFD89
:102D900007F14001A0602046FFF7E4FD07F1440180
:102DA000E0602046FFF7DEFD2061A1E7002BB8D0F0
:102DB0000A2384F84430D5E72046FFF7D3FD0830D6
:102DC0000C22054420462946FFF7F0FD97E70B2328
:102DD000EFE700BF39EA040857EA04083EEA0408AE
:102DE0005FE8040884EA040889EA0408A1EA040800
:102DF000A6EA0408BCEA0408C8EA0408CDEA040804
:102E0000D2EA0408D7EA0408C0E90A2100220263D2
:102E1000FFF70CBF10B5002304460846E3620B68B9
:102E200021639B689847A0622046BDE81040FFF7E9
:102E3000FDBEF0B4BDF81050BDF814602AB123B146
:102E4000CDE90456F0BCFFF701BDF0BC70470000AF
:102E50002DE9F04F9946436985B004460F469046E8
:102E60002BB92A4B77212A4A2A4842F0A3F9082293
:102E70008169FFF79BFDA66920463146FFF787FD74
:102E8000B11C83462046FFF782FD311D8246204655
:102E9000FFF768FD06F10801A36A054642189A4249
:102EA00027D243F230039B4517D146F264339A454B
:102EB00013D190B10246A1612046FFF777FD0E9B2A
:102EC00001462A462046CDF80080CDE901933B46D5
:102ED000FFF7AFFF636901336361A3692B448DB1D1
:102EE000A361A369626A013323F001039342A361E2
:102EF0000AD10120236A6061A36180F0010005B05E
:102F0000BDE8F08F0833EBE70020F6E70DE9040891
:102F1000DCEA04085FE80408012070470C207047D1
:102F20000C2303FB0100083070470C2303FB010056
:102F300008307047012070474FF4337070474FF4EA
:102F4000337303FB0100083070474FF4337303FB06
:102F5000010008307047012070471020704700EBD7
:102F600001100830704700EB011008307047084628
:102F700000F036BE034B10B50446036014F040FD6C
:102F8000204610BDE8EB040810B50446FFF7F2FF39
:102F90001421204628F01EFE204610BD034B10B51C
:102FA0000446036014F02CFD204610BDB4EB040869
:102FB00010B50446FFF7F2FF4FF43571204628F0B4
:102FC00009FE204610BD0000034B10B50446036007
:102FD00014F016FD204610BD80EB040810B5044621
:102FE000FFF7F2FF1821204628F0F4FD204610BD1F
:102FF000084B10B50446036000F54070FFF7BAFFB8
:1030000004F12C00FFF7CAFF04F11400FFF7DCFF06
:10301000204610BD1CEC040808B50248FFF7E8FF85
:1030200008BD00BFEC06002010B50446FFF7E0FF26
:1030300040F27441204628F0CDFD204610BD00002E
:103040002DE9F34100F04CFC0024054600F04CFC57
:10305000234601462246284600941BF039F9254BA9
:10306000254A2046254D1A6001F074FA24481BF0C9
:1030700097F82B68BFF35B8FDB0735D4284628F021
:10308000ABFD88B31F4C204B04F5457604F11400CA
:1030900004F12C0804F5407723606060C4F80880D0
:1030A000E760266114F0AEFC184B4046636114F0F3
:1030B000A9FC174B3846E36214F0A4FC154B2246DA
:1030C00004F58E61C4F80033304601F0B3FA04F51C
:1030D0008E6001F073FB304600F082FD0E4842F036
:1030E00087F8284628F084FD0C4802B0BDE8F0417E
:1030F000FFF79EB84456012080190020E806002002
:103100000C000020EC0600201CEC040880EB0408F6
:10311000B4EB0408E8EB0408193000080419002097
:1031200070470000014814F07EBF00BF0419002062
:1031300070B5224E224B234C3046234D2360FFF7BF
:1031400015FA28461FF09EFB204B00224FF4807199
:103150001F481A8683F858205A6683F870205A67E9
:10316000DC60C3E912121B49C3E91A121A499967B4
:103170001A490B604FF4F0710180194801804FF437
:1031800088711848C3E90422C3E90622C3E908226A
:10319000C3E90A22C3E90E22C3E91022C3E91422BB
:1031A000C3E91722C3E9016501800F4883F8342081
:1031B00001800E490A700E4A1A6070BD640B00202F
:1031C000F8E20408600B0020841900200419002094
:1031D000DC5501200100000100000101E85501203B
:1031E000E2550120DE550120E4550120E055012083
:1031F00084E404080148FFF795B900BF640B002080
:103200000020704781807047C180704701817047FE
:10321000418170477047704770477047704710B4DE
:10322000C4880368121B84885B6D091B12B25DF8A9
:10323000044B09B218474FF6FF7383814FF0FF33F9
:1032400003621368C3611060704790F825201AB1BB
:1032500090F8242002B1186070470000034B9022C0
:1032600083F85A2383F85823704700BF00E100E039
:10327000094A0A49D3680A48C3F30A03013B9BB2CF
:103280000B801169C1F30A01013901801364536B8A
:1032900043F001035363704700680140621A002045
:1032A000601A0020014BD3F8AC0070470068014061
:1032B000024B0122C3F8AC105A627047006801400B
:1032C000124A5369DB0370B51ED50023C2F884305F
:1032D000BFF34F8FD2F8803043F6E074C3F3C900D8
:1032E000C3F34E335B0103EA0406014646EA8175E7
:1032F0000139C2F87452F9D2203B13F1200FF2D1F8
:10330000BFF34F8FBFF36F8F70BD00BF00ED00E0C4
:1033100070473823002201FB0333C25490F8383041
:103320000BB9036C83647047704710B5044658218D
:1033300028F050FC204610BD38B5044614F05FFE5E
:1033400023685D6E17F07AFF01462046A847236880
:10335000084A2046D3F888500023A2F57F31A847B9
:10336000054B064A5A60064A1A649A644FF4FF22D3
:103370005A6438BD00F807C0081A0020E421002074
:1033800000F40BC014F022BE14F02CBE14F0E8BD03
:1033900014F057BF90F8252012B103685B691847F5
:1033A0007047000008B531B1044B40F29711044A50
:1033B000044841F0FFFE90F8390008BD28EC0408ED
:1033C0003CEC0408C9ED040810B531B1064B40F2DD
:1033D0009111064A064841F0EDFE40681146036827
:1033E000BDE810401B6B184728EC04080BEE0408DE
:1033F000C9ED040808B529B1034B7A21034A0448F2
:1034000041F0D8FE006908BD28EC0408BCEF0408B0
:10341000C9ED040808B529B1054B8321054A0648C2
:1034200041F0C8FE41618160C0E9063208BD00BFBD
:1034300028EC040874F10408C9ED040810B504462A
:1034400029B1274BA421274A274841F0B3FE052A7A
:1034500034D8DFE802F003292F34393E406803688E
:103460001B69984750B34FF0FF31606D04F088FF3F
:103470000023012294F83E1084F83B3084F8392070
:10348000A360636101B1226284F83E306362E36A43
:103490002BB90123206D84F83A3005F05BF8606D9C
:1034A000BDE8104004F09CBF002380F8393084F858
:1034B0003E3003E0036200238360436110BD03627A
:1034C000002383604361F2E7002380F83930012351
:1034D000EDE7003B18BF012380F83D30EEE700BF69
:1034E00028EC040833F30408C9ED040870B5044659
:1034F000164629B1314BE721314A324841F05AFE94
:1035000090F8393033B1304B1B6893F86B20436926
:1035100013444361E36A002B4DD0E169D4E90532DD
:103520005343A2684A43934220D2236A002B42D0DD
:103530004FF0FF31606D04F023FF236A0BB10023CD
:10354000E362E36AFBB90125606D04F049FF94F87A
:1035500039300BB9236A3BB1E36A2BB90123206DE3
:1035600084F83A3004F0F6FF284670BD94F84C0019
:103570000028DDD09B1AB3FBF1F2994298BF02F10B
:10358000FF326262D4E7002294F83C50A3623046D6
:10359000E262E2682261A2680132A26033633368AA
:1035A0005B699847002DCED194F83D30002BCBD1EC
:1035B00084F83950C8E70125C9E700BF28EC0408A2
:1035C0000AF50408C9ED0408E8550120034B4FF043
:1035D00080629A604FF080729A60704700E100E06C
:1035E000084B4FF08062C3F88820BFF34F8FBFF3C2
:1035F0006F8F4FF08072C3F88820BFF34F8FBFF3F7
:103600006F8F704700E100E038B5034690F838004E
:1036100038BB01229860D8609A634FF48072586179
:103620009A874FF4F0729861D86118625862986274
:10363000D8621863586383F83E00CA864FF48872D4
:1036400081F834000A8708639A6C186102F5FF2438
:10365000D3E9101529448C420AD9084B5821084A4D
:1036600003E0084B40F2F511074A084841F0A2FD7B
:103670001A6302F57F329C645A6338BD68F8040807
:10368000A8F80408AEF60408DEF60408C9ED04083C
:1036900010B5144C236823B3134B144A1B6C1188C8
:1036A0008B4213D1124B198802F044FF226892F822
:1036B0006A30013382F86A30FEF7E4FE206815F0C4
:1036C000EBF90020BDE81040FEF726BD02F032FF06
:1036D000206803681B6A98470020BDE81040FEF789
:1036E00035BD10BDE855012000680140621A002078
:1036F000601A00202DE9F74304464FF4707894F8DF
:103700003A304FF0FF31002B31D0606D04F038FEBD
:10371000276BA36ABB4200D1676B266A656856B304
:103720002B68314628465B6A98470023236284F859
:103730003B30606D04F054FE2B684FF4F072394654
:10374000CDF8008028465E694FF48873B0474FF08B
:10375000FF310646606D04F013FE94F83B30E3B190
:10376000002384F83B30606D04F03AFEC7E7206D1B
:1037700004F0B6FEC3E7636A002BDAD02B68284654
:10378000D3E909939847616A01442846C847A3686A
:10379000626A66621344A360CBE7E7625EB12B689E
:1037A00028469B6A984701380023E06084F83C6013
:1037B00084F83A30D7E70120F6E70000014808B561
:1037C000FFF798FF081A00200368042270B504462A
:1037D0005E6A00230D46B0474FF0FF31606D04F084
:1037E000CFFD382303FB0542D16A09B10021D16224
:1037F00003FB0545012385F83B30002385F839306C
:10380000606DBDE8704004F0EBBD38B500EB81039E
:1038100004460D46114658680368DB6898472946F8
:103820002046FFF7D1FF38BD70B50D46114604465E
:1038300000EB85025068026896681A46B047294630
:103840002046FFF7C1FF70BD38B516490025164860
:10385000FFF760F8154C164B01202A4629462360D5
:103860004FF48073A564A38784F84C0084F83E501D
:10387000C4E91055C4E91455C4E90155C4E9035518
:10388000C4E90555C4E90755C4E90955C4E90B5510
:10389000C4E90D5504F0CEFD2065284604F02CFD4A
:1038A000606538BD641A0020E4210020081A002059
:1038B00058FA0408704710B50446042128F08AF924
:1038C000204610BD08B519B1012905D0002008BD5A
:1038D00000F08CFE0068FAE700F088FE4068F6E72A
:1038E00000487047A0FA04080820704713B5002468
:1038F00051B1036801AA01948DF803409C680DF151
:103900000303A04702B010BD0846FBE7C08970471B
:10391000008A7047C088704780887047807A00F0BE
:103920007F007047807AC0097047704710B5044621
:10393000082128F04FF9204610BD7047704700F568
:1039400098730868496803C37047704770474160BF
:1039500070477047064BC0F84801C0F84C3100234F
:10396000C0F8503100F5A273C0F84031704700BF75
:10397000193A00080123037270477047704710B46A
:1039800041680346C2689B68541001EB6200D2078D
:1039900048BF0A595DF8044B48BFD35818474368DD
:1039A0002BB183682BB9C06800F00100704718463E
:1039B00070470120704710B504460C2128F00AF921
:1039C000204610BD10B50446102128F003F920460A
:1039D00010BD10B504464FF4AE7128F0FBF8204638
:1039E00010BD10B517F02AFC0368BDE81040DB6B72
:1039F000184710B50446D0F8400158B10368DB6899
:103A0000984738B1D4F8400103689B689847002371
:103A1000C4F8403110BD00002DE9F14FD0E9555AEE
:103A20000746A86803681B6A9847B0F5337F05D23C
:103A3000454BA321454A464841F0BCFB68680368F2
:103A40001B6A98470F2803D8424BA4213F4AF2E74C
:103A5000E86803681B6A98470B2803D83E4BA521EA
:103A60003A4AE8E7DFF8F89017F0E8FB043017F07F
:103A70000AFCD9F8000010B10368DB689847D9F850
:103A8000000010B103681B689847DFF8D880D8F8A9
:103A9000000010B103685B699847D7F83C0110B18A
:103AA00003685B689847D8F8000010B103681B688A
:103AB0009847D7F83C0110B103689B689847E868BD
:103AC00000214FF0000B03685B6A9847234B0446C4
:103AD000C0F804B00360594680F808B0A8680368CD
:103AE0005B6A9847064600F0E1FD6868594603683E
:103AF0005B6A98470546314600F0B4FDC9F80040BE
:103B0000C7F83C51C8F80060E5B12B1DCAF8003079
:103B100030463368C5F808A0DB68F56398472B6822
:103B200028461B6898472146304619F053F8236809
:103B300020461B699847236820465B6901B0BDE8B1
:103B4000F04F18472B46E1E750FB0408DEFB040862
:103B5000DCFC040823FD0408C6FD0408E0FE04089C
:103B60002856012024560120044B1B6893F8582046
:103B70000AB1D86C00B99868704700BFE8550120B9
:103B8000F8B5044617460E4617F01EFC104B0025EC
:103B90001C6029460F4B23600F4BC4E951350F4B76
:103BA0001868C4E953550368C4E94F559B68C4E9D4
:103BB00055769847284600F0CDFCFFF7D5FF20F05A
:103BC00090FCFFF7D1FF20F007FD2046F8BD00BFB5
:103BD000345601208CFE040874FE0408E8550120C8
:103BE000064BC0F84801C0F84C310023C0F85031F2
:103BF00000F5A273C0F84031704700BF193A0008C1
:103C0000406A7047806A704770478B88C069DB0ADA
:103C10000A6850F823001044704710B5C2B1137BF6
:103C2000B3B1547BD27A240204F4E0641443026AF0
:103C300098B202EB840213888B4202D192F90200FF
:103C400010BD05D80138043280B20028F3D1F7E75F
:103C50000020F5E710B504462C2127F0BBFF2046D5
:103C600010BD000030B58BB00446BDF8605008951B
:103C7000BDF85C5007959DF8505006959DF84C5046
:103C800005959DF8485004959DF8445003959DF87E
:103C9000405002959DF83C500195BDF83850009574
:103CA00018F0F2FB064B20462360159BE361169B40
:103CB0002362199B63621A9BA3620BB030BD00BFE5
:103CC00004FF04087047704770477047704730B56D
:103CD00085B00368044601816D460146D3F88430FF
:103CE0003C342846984795E8070084E8070005B06B
:103CF00030BD30B585B00368044641816D4601464C
:103D0000D3F884303C342846984795E8070084E887
:103D1000070005B030BD0022028042808280C28050
:103D2000704780F836107047036870B504461B6B07
:103D3000154698472368204629465B6EBDE87040CB
:103D4000184700207047806C704770477047704775
:103D500070477047704730B444680346C2689B6838
:103D6000551004EB6200D20748BF625930BC48BF0F
:103D7000D358184743682BB183682BB9C06800F04B
:103D800001007047184670470120704710B504467F
:103D90004C2127F01FFF204610BD10B5044610210E
:103DA00027F018FF204610BD10B504464FF43271BD
:103DB00027F010FF204610BD08B5FFF7EBFA08BD4D
:103DC00000F5DA73994270B504460D4602D10368D6
:103DD000DB6A984704F5F4739D4205D123682046B9
:103DE0001B6BBDE87040184770BD0000036870B5DC
:103DF0005E6B0446114B8DB21B682BB9104B6C21C6
:103E0000104A114841F0D6F91049828D0988914233
:103E100003D80F4B6D210B4AF3E713F812200D4B1B
:103E20001B6853F8220003681B6B9847281A334617
:103E300001B22046BDE87040184700BF3856012047
:103E40005CFF04089EFF0408D9FF04083C560120CB
:103E5000200005084056012000224FF0FF3182600B
:103E6000C0E900217047036870B504461B6B154616
:103E700098472368204629465B6BBDE87040184789
:103E800070B504461D46BDF91060FFF7ECFF2368CE
:103E9000294620469B6B9847236831462046DB6BBA
:103EA000BDE87040184700000022C0E90122C0E9C7
:103EB0000322C0E90522C0E907224FF48072828400
:103EC000014A0260704700BFA000050838B50446EB
:103ED0000D462622002144F021F92046FFF7E4FF99
:103EE000064B2046294623602B88E384FF2384F871
:103EF000283015F058FC204638BD00BF842705083F
:103F000010B504462622002144F008F92046FFF7A8
:103F1000CBFF0A4B4FF47F0220462360084BA3627D
:103F20004FF6FF73A3850023C4E90C324FF0FF3234
:103F30002387E363C4E9102310BD00BF18260508DA
:103F400048FB040810B504462622002144F0E6F898
:103F50002046FFF7A9FF00232046A36284F82C30F7
:103F6000012384F82430044B23604FF6FF73E3856C
:103F7000238684F8323010BD102705082DE9F04F54
:103F8000044600254FF6FF76274604F16C0B04F13A
:103F9000980A04F1C40904F1F0082DED068B8BB0EA
:103FA00018F06CFC734B26222946E56347F8403B2A
:103FB000384644F0B3F83846FFF776FF6E4B08A951
:103FC00058462364FF23A56684F86630ADF8206068
:103FD000FFF77CFF08A95046ADF82060FFF776FF99
:103FE00008A94846ADF82060FFF770FF08A94046D1
:103FF000ADF82060FFF76AFF04F58E735F4E184638
:1040000008EE103AFFF77CFF04F5B473C4F81C61A6
:104010001846C4F8645108EE903AFFF771FF04F5B2
:10402000DA73C4F86861C4F8B051261D18460AEE68
:10403000103AFFF787FF04F5F47318460AEE903A3A
:10404000FFF780FF04F50773184609EE103AFFF7F3
:1040500057FF04F51973184609EE903AFFF750FF21
:10406000474B2A4638462946C4E9AE34454BC4E995
:10407000B0354FF4887300934FF4F073FFF700FFEF
:104080004FF07F4339463046A366012713F0CEFC3C
:1040900027225846A921FFF7E6FE584608A9ADF8A1
:1040A000207015F080FB594630464FF0FF3B13F06F
:1040B000BDFC2A4650462946FFF7D5FE504608A9C2
:1040C000ADF8205015F06FFB51463046DFF8CCA01C
:1040D00013F0ACFC272248469421FFF7C4FE484663
:1040E00008A9ADF8207015F05EFB4946304604F58E
:1040F0002B7913F09BFC2722404640F24111FFF739
:10410000B2FE404608A9ADF8207015F04CFB4146C0
:1041100030460DF1080813F089FC592342229421FE
:1041200018EE100A00939823FFF7AAFED4F81C316A
:1041300018EE101A4046D3F88430C4F84CB1A4F8F5
:104140005051984704F5AC7398E8070083E80700DE
:10415000DAF800302BB90C4B60210C4A0C4841F0C6
:1041600029F80C4B1B88012B1AD80B4B6121074AED
:10417000F4E700BFB0010508A826050808010508F6
:1041800098010508C13D00085CFF04085E000508B1
:10419000D9FF04083C5601202000050838560120AC
:1041A000704B394604F2B227186800F00FFA6E4AD5
:1041B00003460321484619F0E5FFC4F86491DFF88F
:1041C000B09108A918EE100AADF82450CDF820904F
:1041D00015F052F918EE101A304613F027FC592248
:1041E000982340F2411118EE900A00924222FFF704
:1041F00047FED4F8683118EE901A4046D3F8843060
:10420000C4F898B1A4F89C51984704F5D27398E883
:10421000070083E80700DAF80030002B9BD0534AF0
:104220001388042BA1D94F4B04214FF0020A1868C0
:1042300000F0CCF94C4A03460321384619F0A2FF9E
:1042400008A918EE900AC4F8B071CDF8209004F5D2
:104250002E77ADF8245015F00FF918EE901A30466D
:1042600013F0E4FB1AEE100A2C220621FFF7FBFDE7
:10427000052308AA07A9ADF81C3007231AEE100A77
:10428000ADF8203015F056F91AEE101A3046C4F881
:10429000DC7113F0CBFB1AEE900A85220621FFF7A2
:1042A000E2FD042308AA07A91AEE900AADF820300F
:1042B000ADF81CA015F03EF91AEE901A3046C4F87D
:1042C000107213F0B3FB0C2219EE100AB721FFF79E
:1042D000CAFD19EE101A4046C4F84CB2A4F8505268
:1042E00014F022FE04F5167398E8070083E807002F
:1042F000032308A919EE100ACDF82090ADF8243058
:1043000015F0BAF819EE101A304613F08FFB0C2294
:1043100019EE900A40F25D11FFF7A5FD19EE901A13
:104320004046C4F894B2A4F8985214F0FDFD04F588
:10433000287398E8070083E8070008A919EE900A97
:10434000CDF82090ADF824A015F096F8304619EE7F
:10435000901A13F06BFB20460BB0BDEC068BBDE84A
:10436000F08F00BF44560120081A05083C56012072
:1043700048FB04087047000030B5164D8FB02C681C
:10438000BFF35B8F14F0010420D1284627F024FCF2
:10439000E0B1114B012211490893114B11480594CA
:1043A000CDE906430423CDE9033250230A220093CA
:1043B000CDE90B44CDE90944CDE90144FFF752FCB6
:1043C000094840F015FF284627F012FC05480FB0B9
:1043D00030BD00BF2C2200204C730508AC8707902D
:1043E0006C730508302200207543000870470000F8
:1043F00030B5174D8FB02C68BFF35B8F14F00104FC
:1044000022D1284627F0E8FBF0B13F230D221149C5
:104410000993114B11480893114B0A9407930123F8
:1044200001940493CDE905430423CDE902430F230E
:10443000CDE90B4400931223FFF714FC094840F028
:10444000D7FE284627F0D4FB04480FB030BD00BF8C
:104450005C220020388807905073050860220020F5
:1044600070730508ED430008002070470020704776
:104470000EB403B503AB002153F8042B019317F0DE
:104480002BFE02B05DF804EB03B070470CB407B527
:1044900004AB53F8042B019317F01EFE03B05DF834
:1044A00004EB02B070470000436C10B5044673B3D0
:1044B000038F2BB9184BC521184A194840F07AFED2
:1044C000C38E00EB43035B8C0BB319F0B3F8238F5F
:1044D000012B03D8134BCB21134AEEE7E28E40F6B3
:1044E0003F10531C9BB2092B194688BFA3F10A0148
:1044F00004EB4101498C814209D10A2B04EB4202B1
:1045000028BF0023508C04EB430358845184204679
:10451000BDE8104018F090BFE4010508ED01050862
:1045200098020508E2020508F002050818F04DBFE0
:1045300010B586B002AC84E806001A460AAB2146E4
:1045400005930193099B0093089B16F015FA06B09A
:1045500010BD000038B518BB124B13481C68134936
:10456000B4B1226822440260626822440A60A268F0
:1045700014440F4B00221A8000F038F8054600F072
:1045800033F80C4B1C600C4B1D600C4B188007E083
:104590000B4B03600B4B0B600B4B1C68002CE8D1E2
:1045A00038BD00BF8C2200209022002094220020E1
:1045B0009822002038560120405601203C56012008
:1045C00004890790F088079044890790044B1B6882
:1045D00053F82100034B1B6803EB4000704700BFFA
:1045E0009422002090220020052070470048704748
:1045F0009C22002010B5044CFFF7BEFE2060FFF7A0
:10460000F7FE606010BD00BF9C220020704710B50F
:1046100004464FF4AE7127F0DDFA204610BD10B508
:104620000446D0F8580100F0CCF82046BDE8104010
:1046300016F086BE10B50446FFF7A2FA014B2046DD
:10464000236010BDCC0305087047043870477047DD
:1046500010B50446102127F0BDFA204610BDA0F188
:104660000400F5E70022C1608260044A10B502F13F
:10467000080420320460426010BD00BF1804050821
:10468000034B10B504460360FFF761FB204610BDE5
:104690004804050810B50446FFF7F2FF4FF43371E4
:1046A000204627F097FA204610BD000010B50446BA
:1046B000FFF764FC034B20462360002384F8C832D4
:1046C00010BD00BF48040508014827F0D1BA00BF5B
:1046D000A4220020014827F0FFBB00BFA422002035
:1046E000F7B5044690F8C832284A032100F52B702C
:1046F00004F5DA7719F046FD94F8C832292B2ED844
:10470000052301AA69463846ADF800300723ADF805
:10471000043014F00FFF012394F8C85204F5F47626
:1047200084F8D8313DB30223012569463046ADF8FF
:10473000003004230DEB0302ADF8043014F0FAFE50
:1047400004F58E7084F80C5217F0F1FD384617F01E
:10475000EEFD304603B0BDE8F04017F0E8BD06239B
:1047600001AA69463846ADF80030ADF8043014F0BF
:10477000E1FE0023D0E7032301AA69463046ADF8E5
:104780000030ADF8043014F0D5FED9E766170508FF
:10479000FFF7A6BF90F8C8322A2B96BF01332A2311
:1047A000DBB280F8C832FFF79BBF90F8C8320BB17C
:1047B000013BDBB280F8C832FFF792BF00220260F3
:1047C0007047704700B54FF4807295B04FF080711C
:1047D00003460C9205220F910121069200220191BD
:1047E0000B92139200920B48CDE90312CDE90D22F2
:1047F000CDE91122102206A902924FF480020592FF
:104800006A4602F079F8003818BF012015B05DF84B
:1048100004FB00BFA822002000B54FF4807395B0C0
:1048200041F2883217480C93062306A90693002309
:10483000CDE90D330F930B931393CDE9113302F0B0
:1048400018F8E0B9022301224FF4800104900D48CA
:10485000CDE900331023CDE9023205236A46CDE9C4
:1048600005134FF0807306A90F9341F2883302F0CD
:1048700043F8003818BF012015B05DF804FB012093
:10488000FAE700BFA822002000B54FF4807391B072
:104890004FF040720E480893EB2302A902934FF4A5
:1048A000406309934FF4005305930023CDE90A3286
:1048B0000A220F9307926A46CDE90D33CDE9003302
:1048C00002F06AF8003818BF012011B05DF804FB4F
:1048D000A8220020454B012145489A6B42F0020274
:1048E000F0B59A638DB09A6B09240427002602F074
:1048F0000202404D0092009A9A6942F002029A61C7
:104900009A6922F002029A611A6B42F002021A635B
:104910001A6B02F002020192019A1A6B42F0020233
:104920001A631A6B02F002020292029A1A6B42F0A8
:1049300008021A631A6B02F008020392039A1A6BB8
:1049400042F008021A631A6B02F008020492049AF9
:104950001A6B42F010021A631A6B02F010020592F1
:10496000059A1A6B42F008021A6340221B6B03F08F
:1049700008030693069B0223CDE907230323CDE911
:1049800009130A2307A90B9300F03CFF07A9184855
:10499000079709960B9400F035FF4FF4006307A9C1
:1049A00028460B94079300F02DFF4FF4805307A97E
:1049B00028460B94079300F025FF07A90E48079798
:1049C0000B9400F01FFF4FF4005307A928460B94E7
:1049D000079300F017FF32460F215C2000F0D8FC4F
:1049E0005C2000F007FD0DB0F0BD00BF00380240B4
:1049F00000040240000C024000100240F0B5494C97
:104A000091B0494B2046236001F020FF054610B1CC
:104A1000012011B0F0BD01462046FFF75BFF0126E3
:104A200004234FF08077C4E901631023E36097FA11
:104A3000A7F3B3FA83F32046013B23614FF4A0634D
:104A4000C4E90755C4E9053501F0ACFE0028DFD103
:104A50004FF4807566230B9041F28832079002A9CB
:104A60000F9008950293CDE90900CDE90D0020468D
:104A700001F0FFFE08B10420CBE7992341F2883210
:104A800002A92046029301F0F4FE0028F3D141F27E
:104A90008830FFF797FE0028EDD18523079041F27B
:104AA000883202A9089502930B97CDE90900CDE958
:104AB0000C60CDE90E00204601F0DBFE0028DAD1C3
:104AC00041F288320DF10701204602F04BF8002830
:104AD000D1D1FFF7A1FE0028CDD18123F02202938E
:104AE00092FAA2F20A219DF80730B2FA82F2204629
:104AF00003F00F0301FA02F202A9134341F28832D4
:104B00008DF8073001F0B5FE0028B4D141F28832AB
:104B10000DF10701204601F0C9FF00283FF479AFED
:104B2000A9E700BFA8220020001000A00F49002024
:104B3000D1F8883043F47003C1F888300C4B1A6800
:104B400042F001021A6098601A6822F0847222F41E
:104B500080321A60074A5A601A6822F480221A606A
:104B6000D8604FF000638B60704700BF00ED00E03D
:104B700000380240103000247047002070470000C9
:104B8000002337B58DF807300D4B1A780AB901228A
:104B90001A700324C5B2013CA8212846FDF7A0FAEB
:104BA00014F0FF048DF807009DF80730DBB203D145
:104BB0009DF8070003B030BD512BECD1F8E700BFE2
:104BC000F622002013B500240221C0B28DF8074060
:104BD000FDF786FA8DF807009DF8073003F00F0304
:104BE0008DF807309DF80730052B01D98DF8074067
:104BF0009DF80720034B9DF807005A7000229A7019
:104C000002B010BDF62200202DE9F74F2F4C1546BB
:104C10004FF000080F46A37862788DF807809A421B
:104C20004DD9092B4ED803EB43035B00DBB2191DB2
:104C300003F1030B03F1060A0533C9B25FFA8BFBDC
:104C40005FFA8AFA5FFA83F8C6B2DFF884903046DA
:104C5000FDF746FA8DF807009DF8073059463046B3
:104C6000A9F80030FDF73CFA8DF8070051469DF891
:104C700007303046B9F800201B0203F47063134379
:104C80003B80A9F80030FDF72BFA8DF8070041466C
:104C90009DF807303046A9F80030FDF721FA8DF86D
:104CA00007009DF80730B9F800201B0203F4706379
:104CB0001343A9F800302B80A3780133A37003B00D
:104CC000BDE8F08FC246C3464146BDE7F62200204C
:104CD000F42200200122A421C0B2FDF7E7B900228E
:104CE000A421C0B2FDF7E2B9FFF7F9BF7047000099
:104CF000024B1A780AB901221A707047F622002076
:104D0000074A032008B5136843F48073136000F06A
:104D10002DFB0020FDF75EF8FCF772FD002008BDBA
:104D2000003C0240034A044B11681B780B4413609B
:104D3000704700BFFC2200203C000020014B186897
:104D4000704700BFFC22002038B50446FFF7F6FF8D
:104D50000546631C1EBF044B1B78E418FFF7EEFFEB
:104D6000431BA342FAD338BD3C00002038B50446AB
:104D7000002800F09B80056C25B9FCF75FFD656499
:104D800084F83C50236CDB0600F18E80236C23F406
:104D9000885323F0020343F002032364444B5A6810
:104DA00022F440325A605A6861680A435A602368A4
:104DB00021695A6822F480725A605A6842EA0122D4
:104DC000A1685A605A6822F040725A605A680A43D1
:104DD000E1685A609A6822F400629A609A680A430D
:104DE00034499A60A26A8A4252D0996821F070616F
:104DF000996099680A43E16A9A609A6822F0405281
:104E00009A609A680A439A609A68A16922F002023D
:104E10009A609A6842EA41029A6094F82020002A37
:104E20003ED05A68616A42F4006201395A605A6899
:104E300022F460425A605A6842EA41325A600020C5
:104E4000DA6AE16922F470020139DA62DA6A42EA66
:104E50000152DA629A6822F400729A609A6894F8B1
:104E6000301042EA412261699A609A6822F48062B5
:104E70009A609A6842EA81229A606064236C23F007
:104E8000030343F001032364002384F83C3038BD5E
:104E90009A6822F070629A609A6822F04052B2E7F3
:104EA0005A6822F40062C9E70120EDE70120EEE72D
:104EB000002301400100000F002382B0019390F80D
:104EC0003C30012B66D00123026880F83C309368A7
:104ED000D9070CD5936813F001031AD1026C42F084
:104EE00010020264426C42F00102426438E09368AE
:104EF000294943F001039360284B1B68B3FBF1F38E
:104F000003EB43030193019B002BE3D0019B013B87
:104F1000F8E7036C23F4E06323F0010343F48073A8
:104F2000036453685B0505D5036C23F4405343F4D5
:104F300080530364036C13F4805302D0436C23F05A
:104F4000060343640023164980F83C306FF02203C7
:104F500013604B68D80606D1906810F0405014D00A
:104F6000002002B070470F4B9A4207D1936813F0AC
:104F7000405F03D1936843F0804393604B68DB0646
:104F8000EED4094B9A42EBD1E6E7936843F08043B5
:104F90009360E6E70220E4E740420F0010000020A3
:104FA00000230140002001400022014090F83C30E5
:104FB000012B14D003689A6822F001029A609B6862
:104FC000DB0707D4036C23F4885323F0010343F079
:104FD00001030364002380F83C3018467047022028
:104FE000704703689A6870B5560504460D460BD5A0
:104FF0009B68D80508D5236C012043F02003236467
:10500000002384F83C3070BDFFF798FE0646236805
:105010001A6892070CD56FF012021A60226C42F4E3
:10502000007222649A6812F0405F17D00020EAE70D
:10503000691CEDD065B923681B6813F00203E6D143
:10504000226C032084F83C3042F004022264DAE748
:10505000FFF774FE801BA842EDD8D8E7A269002AAA
:10506000E4D1DA6A12F4700F02D09B685B05DDD4DC
:10507000236C23F480732364206C10F48050D5D10A
:10508000236C43F001032364BDE70368D86C7047C9
:10509000704770477047036870B51E6804465D68C6
:1050A000B2072BD5A80629D5226CD10603D4226CD1
:1050B00042F4007222649A6812F0405F17D1A2692C
:1050C000AAB9DA6A12F4700F02D09A6852050ED4A7
:1050D0005A6822F020025A60236C23F48073236400
:1050E000236CD80403D4236C43F0010323642046CB
:1050F000FFF7CEFF23686FF012021A60710733D5F5
:105100002A0631D5236CDB0603D4236C43F4005309
:10511000236423689A6812F4401F1ED19A6B12F41C
:10512000401F02D09A68500517D45A68510514D40C
:105130009A6812F0405F10D1A26972B95A6822F0E1
:1051400080025A60236C23F480532364236CDA05B5
:1051500003D4236C43F001032364204600F005F9D7
:1051600023686FF00C021A60F30710D568060ED59D
:1051700023681B68D9070AD5236C204643F4803383
:105180002364FFF786FF23686FF001021A60B206FE
:105190000ED56B010CD5636C6FF02005204643F0F3
:1051A0000203636423681D60FFF774FF23681D60BA
:1051B00070BD00000023F7B5019390F83C30012B3F
:1051C00077D0012380F83C300C680368A5B2092C25
:1051D0008E6805EB45023AD9B4F1004F37D01E3A3C
:1051E0004FF0070CDF680CFA02FC27EA0C07DF60BF
:1051F000414FBC4226D1DA6842EA0662DA60496869
:10520000062901EB81022FD8053A1F26596B9640DB
:1052100005FA02F221EA06015963596B0A435A63FF
:10522000364A934208D1B4F1004F44D1D2F8043346
:1052300023F44003C2F80433002380F83C301846BE
:1052400003B0F0BDDF6806FA02F23A43D6E74FF04A
:10525000070C1F6996400CFA02FC27EA0C071F6135
:105260001F693E431E61CAE70C294FF01F010BD88E
:10527000233A1E6B914005FA02F226EA01011963F6
:10528000196B0A431A63CBE7413ADE6A91409540B5
:1052900026EA0101D962D96A0D43DD62C0E7184BE5
:1052A0005A6822F400025A605A6842F480025A6036
:1052B000C2E70220C4E7122CF1D00F4B9C4201D070
:1052C000112CB9D10E4B5A6822F480025A605A68E8
:1052D00042F400025A60084B9C42ADD1094B0A4A85
:1052E0001B68B3FBF2F30A2253430193019B002B8B
:1052F000A2D0019B013BF8E7120000100020014002
:10530000002301401000002040420F0010B590F82B
:105310003C30012B27D0012380F83C3003680A7C05
:10532000012A5A680CBF42F0400222F040025A6043
:105330005A680C6822F4400222F400725A605A68DB
:1053400022435A604A685A628A689A625A6822F00E
:105350001F025A608A895C6822435A60002380F8E1
:105360003C30184610BD0220FCE770470749030295
:10537000CA6803F4E06322F4E0621204120C1343DF
:1053800043F0BF6343F40033CB60704700ED00E0AF
:10539000164B30B5DC68C4F30224C4F10703251DA5
:1053A000042B28BF0423062D4FF0FF358CBF033C90
:1053B000002405FA03F3002805FA04F521EA0303A3
:1053C00022EA050203FA04F343EA02034FEA031355
:1053D000DBB206DB00F1604000F5614080F800338D
:1053E00030BD00F00F00024A1354F9E700ED00E071
:1053F00014ED00E0002807DB4109012300F01F0045
:10540000024A834042F82130704700BF00E100E0CB
:1054100000280CDB4309012200F01F00044920335F
:10542000824041F82320BFF34F8FBFF36F8F704747
:1054300000E100E0BFF35F8F044B5A6A22F4803230
:105440005A620022C3F89420704700BF00ED00E0CC
:10545000064B40F00100C3F894005A6A42F48032CF
:105460005A62BFF34F8FBFF36F8F704700ED00E0BC
:105470004378144A10B5C2F898300178E9B143680E
:10548000C2F89C30C37A047B1B0643EA04730B43C7
:10549000817A43EAC143417B43EA8143817B43EA0A
:1054A0004143C17B43EA0143417A43EA0123017A44
:1054B00043EA4103C2F8A03010BDC2F89C10C2F804
:1054C000A010F9E700ED00E010B5044608B901208E
:1054D00010BD437F03F0FF0213B90277FCF7E4F934
:1054E000022363772379E3B92368134A5A619A68E0
:1054F00022F018029A6062792368D2B94FF0FF3225
:105500001A6100209A68616922F060020A43A16969
:105510009A609A6822F080020A439A6001236377B6
:10552000D6E7D4E90212204600F008F80028E2D0BD
:10553000CDE72269E4E700BFB71DC1041F2310B502
:10554000013B1CD321FA03F4E407F9D5102A12D049
:1055500004D83AB1082A10D001200BE0182AFBD158
:10556000062BF9D800684161836823F018031343C0
:105570008360002010BD072BF3E70F2BF1E7002A13
:10558000EAD1EFE770B50446866DFFF7D7FB054615
:1055900094F83530022B06D0802301206365002368
:1055A00084F8343070BD23681A6822F016021A603D
:1055B0005A6922F080025A61226C0AB9A26C1AB1AF
:1055C0001A6822F008021A601A6822F001021A60B2
:1055D00023681B6813F0010308D1E16D3F221846D0
:1055E0008A40B260012284F83520D8E7FFF7A6FB95
:1055F000401B0528ECD920230320636584F835007F
:10560000CDE710B5044630B390F8393003F0FF020F
:105610001BB980F83820FCF75DF922680223616825
:10562000002084F83930136823F440330B43A16819
:105630001360536B23F007030B43E1685363136C50
:1056400023F47F5323F03F030B4313640123E063F0
:1056500084F8393010BD0120FCE7704770470368BB
:1056600070B55E6804461D68F20714D5E90512D5C9
:105670001A6822F480721A60C26B42F00102C2639F
:1056800001229A60042380F83930002380F83830F2
:10569000436903B19847B20616D5AB0414D5236805
:1056A0001A6822F400521A6020229A60E36B43F0D9
:1056B0000203E363042384F83930002384F838308C
:1056C00063690BB120469847300716D5290514D5D4
:1056D00023681A6822F400621A6008229A60E36B59
:1056E00043F00403E363042384F83930002384F88F
:1056F000383063690BB12046984772070BD56B05AC
:1057000009D5236820461A6822F480621A600422B0
:105710009A60FFF7A2FFB00714D5A90512D5236838
:105720001A6822F400721A6002229A60E36BE36343
:10573000012384F83930002384F8383023690BB111
:1057400020469847F20613D5EB0411D5236820466E
:105750001A6822F480521A6010229A60E36BE363A5
:10576000012384F83930002384F83830FFF776FFBE
:1057700070BD0000F0B590F83830012B4FF00203F7
:105780002BD080F83930012200EB01131C4F80F838
:1057900038200E015D6AD3E9074244EA0242093C1F
:1057A000012C96BF05F07F4342EA05621A43036865
:1057B000A9B9596A012C01EA070142EA01025A62B9
:1057C00082699A6103D8426A22F07F429A62012379
:1057D00080F83930002380F838301846F0BDD96998
:1057E000012C01EA070142EA0102DA6100EB06023C
:1057F00092691A61EBD825F07F451D62E7E700BF8B
:10580000F0FFFC002DE9F74F0023DFF8B8916B4A59
:1058100001240D689C4004EA050CAC4340F0B480C0
:105820004D684FEA4308032605F0030406FA08F61C
:10583000671EF643012F34D8876807EA060ECF6843
:1058400007FA08F747EA0E078760476827EA0C0E51
:10585000C5F300179F4047EA0E074760C768022C50
:1058600007EA060E8F6807FA08F747EA0E07C760CF
:1058700019D14FEAD30A03F0070B4FF00F0E00EBDC
:105880008A0A4FEA8B0BDAF820700EFA0BFE27EA31
:105890000E0E0F6907FA0BF747EA0E07CAF82070D9
:1058A00001E0032CDAD1076804FA08F415F4403F4C
:1058B00007EA060744EA0704046065D0D9F84440C3
:1058C00023F0030603F0030744F4804406F1804606
:1058D000BF00C9F8444006F59C36D9F8444004F4AA
:1058E00080440194019C0F24D6F808E0BC402EEAC5
:1058F000040E334CA0424ED004F58064A0424CD03C
:1059000004F58064A0424AD004F58064A04248D0E7
:1059100004F58064A04246D004F58064A04244D0DF
:1059200004F58064A04242D004F58064A04240D0D7
:1059300004F58064A0423ED004F58064A0420CBF10
:1059400009240A24BC40EF0244EA0E04B4606FEA62
:105950000C06946854BF34404CEA0404AF029460CF
:10596000D46854BF34404CEA0404AF03D460546894
:1059700054BF34404CEA0404ED035460146854BF2F
:1059800034404CEA040414600133102B7FF440AF20
:1059900003B0BDE8F08F0024D4E70124D2E702244D
:1059A000D0E70324CEE70424CCE70524CAE7062485
:1059B000C8E70724C6E70824C4E700BF003C01404D
:1059C00000000240003802402DE9F04F0022494C0F
:1059D000DFF82891DFF828A1DFF828B1012303FAC6
:1059E00002FE3EEA01050EEA01076CD122F0030532
:1059F00002F0030C0F26404B05F180454FEA8C0C5A
:105A0000984205F59C3506FA0CF6D5F8088006EAAA
:105A100008085DD003F5806398425BD003F580638E
:105A2000984259D003F58063984257D003F58063BC
:105A3000984255D0484555D0504555D0584555D039
:105A400003F58053984253D003F5806398420CBF0E
:105A500009230A2303FA0CF3434513D1236823EAED
:105A600007032360636823EA07036360E36823EAAC
:105A70000703E360A36823EA0703A360AB6823EA94
:105A80000603AB6056000323056802F0070CB34021
:105A90000F274FEA8C0C25EA030507FA0CF705607F
:105AA000D50800EB85052E6A26EA07062E62C56832
:105AB00025EA0305C560456825EA0E054560856849
:105AC00025EA030383600132102A87D1BDE8F08FF5
:105AD0000023BFE70123BDE70223BBE70323B9E7A8
